{
  "contractName": "TestHH",
  "abi": [
    {
      "inputs": [
        {
          "internalType": "string",
          "name": "_message",
          "type": "string"
        }
      ],
      "stateMutability": "nonpayable",
      "type": "constructor"
    },
    {
      "inputs": [
        {
          "internalType": "uint256",
          "name": "",
          "type": "uint256"
        }
      ],
      "name": "devices",
      "outputs": [
        {
          "internalType": "uint256",
          "name": "",
          "type": "uint256"
        }
      ],
      "stateMutability": "view",
      "type": "function"
    },
    {
      "inputs": [],
      "name": "message",
      "outputs": [
        {
          "internalType": "string",
          "name": "",
          "type": "string"
        }
      ],
      "stateMutability": "view",
      "type": "function"
    },
    {
      "inputs": [
        {
          "internalType": "address",
          "name": "",
          "type": "address"
        }
      ],
      "name": "person",
      "outputs": [
        {
          "internalType": "string",
          "name": "name",
          "type": "string"
        },
        {
          "internalType": "uint16",
          "name": "age",
          "type": "uint16"
        },
        {
          "internalType": "enum TestHH.Status",
          "name": "status",
          "type": "uint8"
        }
      ],
      "stateMutability": "view",
      "type": "function"
    },
    {
      "inputs": [],
      "name": "greet",
      "outputs": [
        {
          "internalType": "string",
          "name": "",
          "type": "string"
        }
      ],
      "stateMutability": "view",
      "type": "function"
    },
    {
      "inputs": [
        {
          "internalType": "string",
          "name": "_message",
          "type": "string"
        }
      ],
      "name": "setMessage",
      "outputs": [],
      "stateMutability": "nonpayable",
      "type": "function"
    },
    {
      "inputs": [
        {
          "internalType": "bytes32",
          "name": "_title",
          "type": "bytes32"
        }
      ],
      "name": "setTitle",
      "outputs": [],
      "stateMutability": "nonpayable",
      "type": "function"
    },
    {
      "inputs": [
        {
          "internalType": "address",
          "name": "target",
          "type": "address"
        }
      ],
      "name": "transfer",
      "outputs": [],
      "stateMutability": "payable",
      "type": "function"
    },
    {
      "inputs": [
        {
          "internalType": "address",
          "name": "target",
          "type": "address"
        },
        {
          "internalType": "enum TestHH.Status",
          "name": "_status",
          "type": "uint8"
        }
      ],
      "name": "changeStatus",
      "outputs": [],
      "stateMutability": "nonpayable",
      "type": "function"
    }
  ],
  "bytecode": "0x608060405234801561001057600080fd5b50604051610bd9380380610bd98339818101604052602081101561003357600080fd5b810190808051604051939291908464010000000082111561005357600080fd5b90830190602082018581111561006857600080fd5b825164010000000081118282018810171561008257600080fd5b82525081516020918201929091019080838360005b838110156100af578181015183820152602001610097565b50505050905090810190601f1680156100dc5780820380516001836020036101000a031916815260200191505b50604052505081516100f6915060009060208401906100fd565b505061019e565b828054600181600116156101000203166002900490600052602060002090601f0160209004810192826101335760008555610179565b82601f1061014c57805160ff1916838001178555610179565b82800160010185558215610179579182015b8281111561017957825182559160200191906001019061015e565b50610185929150610189565b5090565b5b80821115610185576000815560010161018a565b610a2c806101ad6000396000f3fe608060405260043610610098576000357c010000000000000000000000000000000000000000000000000000000090048063cfae32171161006b578063cfae321714610296578063deb2398514610320578063e21f37ce1461034a578063ff63e7a81461035f57610098565b806310ff8e311461009d5780631a695230146100d9578063368b87721461010e578063b7e4b265146101c1575b600080fd5b3480156100a957600080fd5b506100c7600480360360208110156100c057600080fd5b50356103a8565b60408051918252519081900360200190f35b61010c600480360360208110156100ef57600080fd5b503573ffffffffffffffffffffffffffffffffffffffff166103c9565b005b34801561011a57600080fd5b5061010c6004803603602081101561013157600080fd5b81019060208101813564010000000081111561014c57600080fd5b82018360208201111561015e57600080fd5b8035906020019184600183028401116401000000008311171561018057600080fd5b91908080601f01602080910402602001604051908101604052809392919081815260200183838082843760009201919091525092955061047e945050505050565b3480156101cd57600080fd5b50610201600480360360208110156101e457600080fd5b503573ffffffffffffffffffffffffffffffffffffffff1661053e565b60405180806020018461ffff16815260200183600281111561021f57fe5b8152602001828103825285818151815260200191508051906020019080838360005b83811015610259578181015183820152602001610241565b50505050905090810190601f1680156102865780820380516001836020036101000a031916815260200191505b5094505050505060405180910390f35b3480156102a257600080fd5b506102ab6105f5565b6040805160208082528351818301528351919283929083019185019080838360005b838110156102e55781810151838201526020016102cd565b50505050905090810190601f1680156103125780820380516001836020036101000a031916815260200191505b509250505060405180910390f35b34801561032c57600080fd5b5061010c6004803603602081101561034357600080fd5b503561068b565b34801561035657600080fd5b506102ab610690565b34801561036b57600080fd5b5061010c6004803603604081101561038257600080fd5b50803573ffffffffffffffffffffffffffffffffffffffff16906020013560ff1661071e565b600481815481106103b857600080fd5b600091825260209091200154905081565b6000341161043857604080517f08c379a000000000000000000000000000000000000000000000000000000000815260206004820152601f60248201527f6d7573742073656e6420612076616c756520686967686572207468616e203000604482015290519081900360640190fd5b60405173ffffffffffffffffffffffffffffffffffffffff8216903480156108fc02916000818181858888f1935050505015801561047a573d6000803e3d6000fd5b5050565b61052b6040518060600160405280602381526020016109d4602391396000805460408051602060026001851615610100026000190190941693909304601f810184900484028201840190925281815292918301828280156105205780601f106104f557610100808354040283529160200191610520565b820191906000526020600020905b81548152906001019060200180831161050357829003601f168201915b50505050508361076a565b805161047a906000906020840190610932565b60036020908152600091825260409182902080548351601f600260001961010060018616150201909316929092049182018490048402810184019094528084529092918391908301828280156105d55780601f106105aa576101008083540402835291602001916105d5565b820191906000526020600020905b8154815290600101906020018083116105b857829003601f168201915b5050506001909301549192505061ffff81169060ff620100009091041683565b60008054604080516020601f60026000196101006001881615020190951694909404938401819004810282018101909252828152606093909290918301828280156106815780601f1061065657610100808354040283529160200191610681565b820191906000526020600020905b81548152906001019060200180831161066457829003601f168201915b5050505050905090565b600255565b6000805460408051602060026001851615610100026000190190941693909304601f810184900484028201840190925281815292918301828280156107165780601f106106eb57610100808354040283529160200191610716565b820191906000526020600020905b8154815290600101906020018083116106f957829003601f168201915b505050505081565b73ffffffffffffffffffffffffffffffffffffffff82166000908152600360205260409020600101805482919062ff000019166201000083600281111561076157fe5b02179055505050565b61090c83838360405160240180806020018060200180602001848103845287818151815260200191508051906020019080838360005b838110156107b85781810151838201526020016107a0565b50505050905090810190601f1680156107e55780820380516001836020036101000a031916815260200191505b50848103835286518152865160209182019188019080838360005b83811015610818578181015183820152602001610800565b50505050905090810190601f1680156108455780820380516001836020036101000a031916815260200191505b50848103825285518152855160209182019187019080838360005b83811015610878578181015183820152602001610860565b50505050905090810190601f1680156108a55780820380516001836020036101000a031916815260200191505b5060408051601f198184030181529190526020810180517bffffffffffffffffffffffffffffffffffffffffffffffffffffffff167f2ced7cef00000000000000000000000000000000000000000000000000000000179052965061091195505050505050565b505050565b80516a636f6e736f6c652e6c6f67602083016000808483855afa5050505050565b828054600181600116156101000203166002900490600052602060002090601f01602090048101928261096857600085556109ae565b82601f1061098157805160ff19168380011785556109ae565b828001600101855582156109ae579182015b828111156109ae578251825591602001919060010190610993565b506109ba9291506109be565b5090565b5b808211156109ba57600081556001016109bf56fe4368616e67696e67206772656574696e672066726f6d202725732720746f2027257327a264697066735822122032666f22226160cab879adedd57d087e80f083eb669e5a427661f0677d97464464736f6c63430007060033",
  "immutableReferences": {},
  "source": "//SPDX-License-Identifier: Unlicense\npragma solidity ^0.7.6;\n\nimport \"hardhat/console.sol\";\n\ncontract TestHH {\n    enum Status {MALE, FEMALE, UNKNOWN}\n\n    string public message;\n    uint256 number;\n    bytes32 title;\n\n    struct Person {\n        string name;\n        uint16 age;\n        Status status;\n    }\n\n    mapping(address => Person) public person;\n\n    uint256[] public devices;\n\n    constructor(string memory _message) {\n        message = _message;\n    }\n\n    function greet() public view returns (string memory) {\n        return message;\n    }\n\n    function setMessage(string memory _message) public {\n        console.log(\"Changing greeting from '%s' to '%s'\", message, _message);\n        message = _message;\n    }\n\n    function setTitle(bytes32 _title) external {\n        title = _title;\n    }\n\n    function transfer(address target) public payable {\n        require(msg.value > 0, \"must send a value higher than 0\");\n        payable(target).transfer(msg.value);\n    }\n\n    function changeStatus(address target, Status _status) external {\n        person[target].status = _status;\n    }\n}\n",
  "sourcePath": "/Users/sergijuanati/Dropbox/Docs/5. Blockchain/8. Sergi's tests/hardhat-setup/contracts/TestHH.sol",
  "compiler": {
    "name": "solc",
    "version": "0.7.6+commit.7338295f.Emscripten.clang"
  },
  "schemaVersion": "3.3.2",
  "updatedAt": "2021-03-20T18:37:49.982Z",
  "devdoc": {
    "kind": "dev",
    "methods": {},
    "version": 1
  },
  "userdoc": {
    "kind": "user",
    "methods": {},
    "version": 1
  }
}